:020000040800F2
:10000000002800207D0C0008490C00084D0C000859
:10001000510C0008550C0008590C000800000000A5
:100020000000000000000000000000005D0C00085F
:10003000610C000800000000650C0008690C000855
:10004000C50C0008C50C0008C50C0008C50C00084C
:10005000C50C0008C50C0008C50C0008C50C00083C
:10006000C50C0008C50C0008C50C0008C50C00082C
:10007000C50C0008C50C0008C50C0008C50C00081C
:10008000C50C0008C50C0008C50C0008C50C00080C
:10009000C50C0008C50C0008C50C0008C50C0008FC
:1000A000C50C0008C50C0008C50C0008C50C0008EC
:1000B0006D0C0008C50C000800000000C50C00080D
:1000C000C50C00080000000000000000C50C00087E
:1000D00000000000C50C0008C50C0008000000006E
:1000E000C50C0008C50C0008C50C00080000000085
:1000F0000000000000000000000000000000000000
:0C01000000000000000000005FF808F1A3
:10010C0010B5054C237833B9044B13B10448AFF345
:10011C0000800123237010BD24000020000000008B
:10012C00941A000808B5034B1BB103490348AFF3FD
:10013C00008008BD0000000028000020941A000870
:10014C0070B59E4C2378072B43D8DFE813F043009F
:10015C006F00A800D80006015101A5010800042079
:10016C00974D98492A68984E81FB0231D317C3EBFF
:10017C00A10303EB8301A2EB410236689349C1E969
:10018C0000308A60C860002E40F05282904B1B6891
:10019C00002B40F03A82002000F038FB08B100231D
:1001AC002370012000F032FB28B12B680133632B44
:1001BC00C8BF01232B60022000F028FB48B10021AE
:1001CC00844B2A681B68844D844813442A6003605E
:1001DC00217070BD00220921814800F02DFF4FF4E1
:1001EC007A76012236217E4800F026FF01237A4DD3
:1001FC000A212868237006FB00F000F05DFC00F07B
:10020C005FFC0A21304600F057FC00F063FC0A2129
:10021C00C82000F051FC00F067FC704A6B4B296859
:10022C0012685960D9601A609A6070BD0022092169
:10023C006B4800F001FF01223621694800F0FCFEFA
:10024C00684B1B68002B40F0A381674B1B68002B8D
:10025C0040F08981654B1B68002B40F071810020B8
:10026C0000F0D4FA0028B4D00A214FF4FA7000F050
:10027C0023FC00F043FC0A21FA2000F01DFC00F0E6
:10028C0047FC0523002203215548237000F0D4FEBF
:10029C00BDE8704001223C21514800F0CDBE002247
:1002AC0021214F4800F0C8FE01221E214C4800F0CD
:1002BC00C3FE4C4B1B68002BC7D04FF47A76464DCF
:1002CC000A21286806FB00F000F0F6FB00F0F8FBB2
:1002DC000A21304600F0F0FB00F0FCFB0A21FA206A
:1002EC0000F0EAFB00F000FC03203C4A374B296885
:1002FC0012681960C3E90121DA602070A5E70022B9
:10030C000621374800F098FE01223921344800F0CC
:10031C0093FE344B1B68002B97D04FF47A762D4DFF
:10032C000A21286806FB00F000F0C6FB00F0C8FBB1
:10033C000A21304600F0C0FB00F0CCFB0A21FA2069
:10034C0000F0BAFB00F0D0FB04212A681F4B21708F
:10035C00C3E90022C3E9022277E7002212212048D8
:10036C0000F06AFE01222D211D4800F065FE1D4B98
:10037C001B68002B3FF469AF4FF47A76164D0A21B7
:10038C00286806FB00F000F097FB00F099FB0A21AF
:10039C00304600F091FB00F09DFB0A21FA2000F0A2
:1003AC008BFB00F0A1FB01200C4A084B296812685A
:1003BC005960D9601A609A60207046E7510000209D
:1003CC00040000206766666688000020400000205C
:1003DC0090000020100000200000002008000020E9
:1003EC0000080140700000207800002080000020F0
:1003FC000220C44DC4492A68C44E81FB0231D31774
:10040C00C3EBA10303EB8301A2EB41023668C049A5
:10041C00C1E900308A60C860002E40F0E580BD4B19
:10042C001B68002B40F0CD80002000F0EFF9002875
:10043C0040F02981012000F0E9F928B12B68013343
:10044C00632BC8BF01232B60022000F0DFF90028CA
:10045C003FF4BFAEB04B2A681B68B048B04DD31AFE
:10046C0002600A214FF4FA702B6000F025FB00F0BB
:10047C0045FB0A21FA2000F01FFB00F049FB00228B
:10048C003021A84800F0D8FD01220F21A54800F02A
:10049C00D3FD0623237070BD0320A34D9A492A680F
:1004AC009A4E81FB0231D317C3EBA10303EB8301FB
:1004BC00A2EB410236689649C1E900308A60C860F7
:1004CC00002E40F00D81934B1B68002B40F0F58003
:1004DC00002000F09BF9002840F0BB80012000F0C8
:1004EC0095F928B12B680133632BC8BF01232B600E
:1004FC00022000F08BF900283FF46BAE874B2A6882
:10050C001B688548864D9B1A02600A214FF4FA70CD
:10051C002B6000F0D1FA00F0F1FA0A21FA2000F079
:10052C00CBFA00F0F5FA00220C217E4800F084FD95
:10053C00012233217B4800F07FFD0723237070BD1F
:10054C000A217A4DFA2000F0B7FA00F0CDFA28789B
:10055C006F4900F071FA2B780133DBB2032B88BFA3
:10056C0000232B707BE60A214FF47A7000F0A4FA7A
:10057C0000F0B0FA664BD3E90050D3E90212013D0A
:10058C0001380139013AC3E90050C3E9021261E6AE
:10059C004FF47A76604D0A21286806FB00F000F0D3
:1005AC008BFA00F08DFA0A21304600F085FA00F043
:1005BC0091FA0A21FA2000F07FFA00F095FA022154
:1005CC00C3E60A21594EFA2000F076FA00F0A0FAA0
:1005DC0030784F4900F030FA33780133DBB2032B1B
:1005EC0088BF002333701FE70A214FF4FA7000F024
:1005FC0063FA00F083FA03214A4800F021FD01223E
:10060C003C21484800F018FD09E70A21474EFA2022
:10061C0000F052FA00F07CFA30783D4900F00CFA08
:10062C0033780133DBB2032B88BF00233370B2E580
:10063C000A214FF4FA7000F03FFA00F05FFA0C2137
:10064C00384800F0FDFC01223321364800F0F4FC60
:10065C009CE50A214FF4FA7000F02EFA00F04EFAE5
:10066C000A21FA2000F028FA00F052FA00220C219C
:10067C002C4800F0E1FC012233212A4800F0DCFC7C
:10068C00072323702AE70A214FF4FA7000F014FABA
:10069C0000F034FA0A21FA2000F00EFA00F038FAD1
:1006AC00002230211F4800F0C7FC01220F211D48F9
:1006BC0000F0C2FC06232370BCE60A211B4EFA2074
:1006CC0000F0FAF900F024FA3078114900F0B4F98E
:1006DC0033780133DBB2032B88BF00233370F7E68A
:1006EC000A214FF4FA7000F0E7F900F007FA302114
:1006FC000C4800F0A5FC01220F210A4800F09CFCDC
:10070C00E1E600BF0C0000206766666688000020EA
:10071C004000002090000020100000200800002065
:10072C0000000020000801401400002050000020B0
:10073C002DE9F84FDFF8C480002446462C4D2D4F90
:10074C00DFF8BCB0DFF8BC90DFF8BCA0297816F855
:10075C00013B07F8011B05F8013BE3B27CB1012B0F
:10076C0024D00421504600F061FC88F8020016F8F1
:10077C00013C15F8011C99420DD0BDE8F88F012100
:10078C00504600F053FC88F8000015F8013C16F8B0
:10079C00011C994203D117F8011C99420DD0013468
:1007AC00032C0BF1010BD1D1BDE8F88F022150467F
:1007BC0000F03CFC88F80100E7E714F809109942B6
:1007CC000AD004F80930002BE9D1642101230A4A2C
:1007DC008BF80010A354E2E79BF800100139C9B262
:1007EC008BF800100029DAD1002BD8D1EDE700BF2F
:1007FC0064000020680000205800002060000020E9
:10080C005C00002054000020000C0140022803462C
:10081C0006D8044A105C20B100210120D154704745
:10082C00002070475800002010B590B02422002101
:10083C0007A801F021F9022400230121102206A8A7
:10084C00CDE90133CDE90333CDE90534CDE90A1205
:10085C0000F000FC08B172B6FEE701460F2301A8B8
:10086C00CDE90211CDE90411019300F029FE08B184
:10087C0072B6FEE710B010BD002400B589B000F0D0
:10088C0041FAFFF7D1FFCDE90444CDE90644364BDC
:10089C0022469969012641F00401996198693F212A
:1008AC0000F00400009000989D69304845F0080560
:1008BC009D619B69022503F008030193019B00F0E5
:1008CC00BBFB22464FF67861294800F0B5FB3F236D
:1008DC00264804A9CDE904360795069400F0A6FA3B
:1008EC000723234804A90493CDE9054400F09EFA9C
:1008FC004FF678631E4804A907950493CDE9056467
:10090C0000F094FA4FF0804141F63F720923194DE3
:10091C00CDE904442846CDE90644CDE90244C5E9B5
:10092C000012AC602C61AC61EB6001F021F808B1F5
:10093C0072B6FEE74FF48053284604A9049300F0E6
:10094C0087FE034608B172B6FEE7284602A9CDE938
:10095C00023301F03BF808B172B6FEE7284600F00E
:10096C004FFEFFF7EDFBFCE70010024000080140D2
:10097C00000C01409400002008B5FFF7D9FEBDE83B
:10098C00084000F0CFB800BF092810B50ED90022DE
:10099C004FF45E41274800F04FFB4FF400542146C2
:1009AC00BDE810400122234800F046BB013808285E
:1009BC003AD8DFE800F01305181D22272C310E0061
:1009CC004FF490444FF4364100221A4800F034FBA7
:1009DC00E5E74FF400544FF45E41F5E74FF47244F1
:1009EC004FF44061F0E74FF4C0444FF41E41EBE785
:1009FC004FF448544FF44C41E6E74FF410544FF485
:100A0C005A41E1E74FF480644FF47A41DCE74FF44C
:100A1C0070444FF46061D7E70022BDE810404FF4FA
:100A2C007E41044800F008BB4FF400444FF4FC41F5
:100A3C00CAE700BF000C014010B5044611F82000B5
:100A4C00FFF7A2FF032C33D8DFE804F00E1A2602BE
:100A5C0000224021174800F0EFFABDE810400122B7
:100A6C003821144800F0E8BA00220821114800F09F
:100A7C00E3FABDE81040012270210E4800F0DCBA08
:100A8C00002210210B4800F0D7FABDE810400122DB
:100A9C006821084800F0D0BA00222021054800F057
:100AAC00CBFABDE8104001225821024800F0C4BA2C
:100ABC0010BD00BF000C014090FBF1F0704700BF6F
:100ACC0000220249024B08601A6070476C0000203B
:100ADC007000002000220249024B08601A60704727
:100AEC00740000207800002000220249024B0860AC
:100AFC001A6070477C000020800000200022024910
:100B0C00024B08601A6070478400002088000020A7
:100B1C0000220249024B08601A6070478C000020CA
:100B2C00900000201B4A1368002B03DD013B13606F
:100B3C00002B2BD0184A1368002B02DD013B1360ED
:100B4C0003B3164A1368002B02DD013B1360ABB1F3
:100B5C00134A1368002B02DD013B136053B1114A99
:100B6C001368002B05DD013B136013B901220E4BFA
:100B7C001A60704701220D4B1A60F0E701220C4BF2
:100B8C001A60E5E701220B4B1A60DAE701220A4BE7
:100B9C001A60CFE76C000020740000207C0000205D
:100BAC00840000208C000020900000208800002091
:100BBC008000002078000020700000200E4B82B0D6
:100BCC009A690E4942F001029A619A6902F0010297
:100BDC000092009ADA6942F08052DA61DB6903F024
:100BEC0080530193019B4B6823F0E06343F08063D7
:100BFC004B6002B0704700BF001002400000014083
:100C0C000368B3F1804F00D07047002203F5043322
:100C1C0010B5DC6982B044F00104DC61DB6911467B
:100C2C0003F0010301931C20019B00F0A1F81C2090
:100C3C0002B0BDE8104000F0D3B800BFFEE700BF23
:100C4C00FEE700BFFEE700BFFEE700BFFEE700BF08
:100C5C00704700BF704700BF704700BF00F064B81A
:100C6C00014800F0A1BD00BF94000020704700BFF8
:100C7C000C480D490D4A002302E0D458C4500433EB
:100C8C00C4188C42F9D30A4A0A4C002301E01360C1
:100C9C000432A242FBD3FFF7E9FF00F0C9FEFFF7D5
:100CAC00EBFD70470000002024000020D81A00083B
:100CBC0024000020E0000020FEE7000038B54FF4CF
:100CCC007A730D4A054611780C4AB3FBF1F312689E
:100CDC00B2FBF3F000F092F808B90F2D01D9012006
:100CEC0038BD0446024629464FF0FF3000F040F86C
:100CFC00034B20461D6038BD1C000020180000204E
:100D0C0020000020074A08B51368032043F01003A5
:100D1C00136000F01BF80F20FFF7D0FFFFF74EFF1A
:100D2C00002008BD00200240034A044B11681B78C8
:100D3C000B441360704700BFDC0000201C00002037
:100D4C00014B1868704700BFDC0000204FF6FF0114
:100D5C00064A0302D06803F4E0630840034343F0FF
:100D6C00BF6343F40033D360704700BF00ED00E075
:100D7C00194B30B4DB68C3F30223C3F10705042D10
:100D8C0003F1040428BF0425062C19D94FF0FF34B5
:100D9C00033B9C4022EA04024FF0FF34AC4021EAB2
:100DAC0004019940002841EA02010CDB090100F121
:100DBC006040C9B200F5614080F8001330BC704748
:100DCC0000221346E8E7054B00F00F000901C9B2F9
:100DDC000344197630BC704700ED00E0FCEC00E0F9
:100DEC00002807DB012300F01F01034A8B40400958
:100DFC0042F82030704700BF00E100E00138B0F14C
:100E0C00807F0DD230B4F02500220721054B064C13
:100E1C00586084F82350104630BC9A6019607047B3
:100E2C000120704710E000E000ED00E02DE9F04FEC
:100E3C000C6885B0002C00F09C800026DFF8DCC12B
:100E4C003346714FDFF8D881DFF8D8E1009004E029
:100E5C00013334FA03F200F08C8001229A4032EA1A
:100E6C00040002EA0405F3D14C68122C00F28480D1
:100E7C00122C0CD8DFE804F088BCB90A0B0B0B0B56
:100E8C000B0B0B0B0B0B0B0B0BB6B3000026FF2D38
:100E9C0000F28180DDF800904FEA830A0F24D9F824
:100EAC00002004FA0AFB22EA0B0206FA0AFA42EACA
:100EBC000A02C9F80020D1F8049019F0805F00F004
:100ECC008C80DCF818A023F003024AF0010ACCF85D
:100EDC0018A0DCF818A002F180420AF0010ACDF843
:100EEC000CA002F5803203F0030ADDF80CB04FEAD7
:100EFC008A0AD2F808B004FA0AF42BEA040001902A
:100F0C00009C4248844211D000F58060844271D02C
:100F1C003F48009C84420CBF4FF0020B4FF0030B78
:100F2C0001980BFA0AFA40EA0A000190019819F4A8
:100F3C00803F90603A6814BF2A43AA433A607A68AB
:100F4C0019F4003F14BF2A43AA437A60BA6819F413
:100F5C00801F14BF2A43AA43BA6019F4001FFA6811
:100F6C0038D01543FD600C68013334FA03F27FF47A
:100F7C0074AF05B0BDE8F08F444505D013D9744566
:100F8C0002D02448844282D18C68DCB9FF2D4FF00A
:100F9C0004067FF67FAF009A4FEA830AAAF1200A73
:100FAC0002F104097AE71C488442EDD0DFF878900E
:100FBC004C45E9D0A9F580194C457FF468AF8C6895
:100FCC00002CE3D00098012C4FF008060CBF0261F6
:100FDC0042615CE722EA0505FD600C6838E7CE68E3
:100FEC000C3654E7CE68043651E7CE6808364EE727
:100FFC00CE684CE74FF0010B01980BFA0AFA40EA65
:10100C000A00019092E700BF000401400008014073
:10101C0000100140000032100000121000100240BD
:10102C0000002210000031100000211083681942CA
:10103C0014BF01200020704702B9090401617047F8
:10104C00C36801EA030221EA030141EA024101619A
:10105C00704700BF002800F0C3812DE9F041036800
:10106C000446DD0782B035D5A6494A6802F00C0269
:10107C00042A00F0EF804A6802F00C02082A00F003
:10108C00E5806368B3F5803F10D0002B00F00D8134
:10109C00B3F5A02F00F08F819A4B1A6822F480329E
:1010AC001A601A6822F480221A6004E0954A1368C8
:1010BC0043F480331360FFF743FE924E054605E080
:1010CC00FFF73EFE401B642800F2EB8033689A0366
:1010DC00F6D523689F0728D58A4A516811F00C0F62
:1010EC0000F08E80516801F00C01082900F084801A
:1010FC002369002B00F025810122834B814E1A605D
:10110C00FFF71EFE054605E0FFF71AFE401B0228FE
:10111C0000F2C78033689807F6D53368626923F00C
:10112C00F80343EAC203336023681A071FD45D0730
:10113C0041D5744BDA69D0007DD50025734B1A6804
:10114C00D10540F19D80E368012B00F00B81002B51
:10115C0000F0C580052B6B4B1A6A00F0398122F028
:10116C0001021A621A6A22F004021A62FFE0A369F1
:10117C00002B50D00122664B624E1A60FFF7E0FD47
:10118C00054605E0FFF7DCFD401B022800F28980D4
:10119C00736A9B07F6D55F4B5F4A1B68A2FB032360
:1011AC005B0A019300BF019B5A1E0192002BF9D1DF
:1011BC0023685D07BDD4E069D0B1524D6A6802F076
:1011CC000C02082A00F0E68002284FF00001534A76
:1011DC0000F008811160FFF7B3FD2C46054604E0D2
:1011EC00FFF7AEFD401B02285BD823689B01F7D4A8
:1011FC00002002B0BDE8F0815268D6033FF578AF0D
:10120C00404A126895072FD52269012A2CD001205B
:10121C0002B0BDE8F0813E4A3A4E1360FFF790FDF4
:10122C00054604E0FFF78CFD401B022839D8736A91
:10123C009F07F7D4BCE7DA69012542F08052DA61E6
:10124C00DB6903F080530093009B77E74A68D00377
:10125C007FF517AF2B4A126891037FF53BAF62689D
:10126C00002A7FF437AFD2E7264960690A6822F07A
:10127C00F80242EAC0020A601A077FF558AF76E717
:10128C001A681F4642F480721A60FFF759FD064631
:10129C003B68DA053FF557AFFFF752FD801B64281A
:1012AC00F6D9032002B0BDE8F08103F1804303F5C9
:1012BC0004331A681E4622F480321A601A6822F42B
:1012CC0080221A60FFF73CFD054604E0FFF738FD6D
:1012DC00401B6428E5D833689B03F7D4F9E603F187
:1012EC00804303F504331A6A1F4622F001021A6286
:1012FC001A6A41F2883822F004021A62FFF720FDC4
:10130C00064612E00010024000004242007000400D
:10131C008004424218000020D34D6210600042420B
:10132C00FFF70EFD801B4045BBD83B6A9807F7D4EE
:10133C00002D3FF440AF444AD36923F08053D3616E
:10134C0039E7424A404E1360FFF7FAFC054604E0C9
:10135C00FFF7F6FC401B0228A3D833689907F7D493
:10136C002368E2E6384A136A43F001031362FFF77D
:10137C00E7FC41F288380646334F04E0FFF7E0FC07
:10138C00801B40458DD83B6A9B07F7D5002D3FF459
:10139C0012AFD0E701283FF42CAF6B68226A03F43C
:1013AC00803191427FF433AF606A03F47013181AE2
:1013BC0018BF01201DE703F18043A3F53C331A68E5
:1013CC0042F480221A601A6842F480321A6072E683
:1013DC0042F004021A621A6A42F001021A62C6E76B
:1013EC00012070471160FFF7ABFC064605E0FFF7E4
:1013FC00A7FC801B02283FF654AF2B689901F6D44A
:10140C00236AB3F5803F05D16A68A16822F40032E3
:10141C000A436A6001200C4D616A6A680B4322F42E
:10142C0074120B4913436B600860FFF789FC2C4660
:10143C00054605E0FFF784FC401B02283FF631AF60
:10144C0023689A01F6D5D3E6001002400000424210
:10145C006000424240F2012286B0154B0DF1180C8F
:10146C00ADF804200FCB0CE90F00124A536803F0BF
:10147C000C01082902D0104806B07047C3F3834111
:10148C006144DB0311F8101C0CD553680A48C3F3F4
:10149C00404300FB01F0634413F8143CB0FBF3F041
:1014AC0006B07047054800FB01F006B0704700BF5E
:1014BC00BC1A00080010024000127A0000093D001E
:1014CC00002800F08C80494A2DE9F041136804464D
:1014DC0003F007038B420D460CD2136823F007036D
:1014EC000B431360136803F007038B4202D00120F7
:1014FC00BDE8F0812368980714D5590704D53C49F9
:10150C004A6842F4E0624A601A0704D538494A68CE
:10151C0042F460524A603649A0684A6822F0F002F0
:10152C0002434A60DF0720D56268314B012A1B68F1
:10153C0057D0022A50D09907D9D52D4E41F2883870
:10154C00736823F0030313437360FFF7F9FB07463B
:10155C0004E0FFF7F5FBC01B404545D87368626893
:10156C0003F00C03B3EB820FF3D1204A136803F0A2
:10157C000703AB4209D9136823F007032B4313600D
:10158C00136803F00703AB42B1D123685A0706D5A1
:10159C001749E0684A6822F4E06202434A601B077C
:1015AC0007D5134A2169536823F4605343EAC103F6
:1015BC005360FFF74FFF0E4B0E4A5B680E49C3F3A7
:1015CC000313D35C0D4A20FA03F308681360FFF78A
:1015DC0075FB0020BDE8F0819801AED487E70120AF
:1015EC0070479E03A9D482E7032081E700200240C4
:1015FC0000100240AC1A0008200000201800002047
:10160C0090F83D30012B16D10222036880F83D2062
:10161C00DA680D4942F001028B42DA600DD0B3F169
:10162C00804F0AD0094A934207D01A68002042F032
:10163C0001021A607047012070479A6802F0070295
:10164C00062AF2D100207047002C01400004004013
:10165C0090F83C30012B74D0F0B4022301240268C2
:10166C0080F83C4080F83D3094680B6824F47F444B
:10167C0024F07704602B946065D031D8402B48D08F
:10168C0021D9502B16D1156A166A4C6826F0010622
:10169C00CF681662936925F00A0123F0F00343EA40
:1016AC000713214393611162936823F0700343F095
:1016BC00570393600023012280F83C3080F83D20D2
:1016CC00F0BC18467047202B02D01ED9302BF1D11C
:1016DC00916821F070010B4343F007039360E9E735
:1016EC00702B49D0B3F5005FE4D1D1E90153CC683C
:1016FC0091682B4343EA042321F47F410B4393600D
:10170C00936843F480439360D4E733F01001D1D154
:10171C00DEE7156A166A4C6826F00106CF68166279
:10172C00936925F00A0123F0F00343EA07132143E0
:10173C0093611162936823F0700343F04703936045
:10174C00B8E702207047146A4D6824F01004CE6884
:10175C0014629169136A21F4704123F0A00343EAE7
:10176C00051341EA063191611362936823F070030B
:10177C0043F0670393609DE7CC68D1E9015391680E
:10178C002B4343EA042321F47F410B43936093687A
:10179C0043F0770393608DE7704700BF704700BF3D
:1017AC00704700BF704700BF036810B51A69044644
:1017BC00910702D5DA6892075FD41A69500702D5EF
:1017CC00DA68510746D41A69120702D5DA6810078D
:1017DC002ED41A69D20602D5DA68D00618D41A6942
:1017EC00D10702D5DA68D2075DD41A69100602D582
:1017FC00DA6811065FD41A69520602D5DA68500607
:10180C0061D41A69910602D5DA68920643D410BDE8
:10181C006FF01001082219612277DB69204613F45E
:10182C00407F64D0FFF7BAFF002223682277D6E707
:10183C006FF00801042219612277DB6920469907B1
:10184C0052D1FFF7A9FF2046FFF7AAFF0022236819
:10185C002277BEE76FF004010222196122779B699F
:10186C00204613F4407F3CD1FFF796FF2046FFF74C
:10187C0097FF002223682277A5E76FF0020101226F
:10188C00196102779B699B0725D0FFF787FF002220
:10189C002368227791E76FF020022046BDE81040C4
:1018AC001A6100F0C1B86FF0010220461A61FFF70F
:1018BC0063F8236899E76FF0800220461A6100F004
:1018CC00B5F8236897E76FF0400220461A61FFF7DE
:1018DC0069FF236895E7FFF75FFF2046FFF760FF7E
:1018EC00D5E7FFF75BFFC4E7FFF758FFAEE7FFF75D
:1018FC0053FF2046FFF754FF96E700BF1B4A0368CF
:10190C0090421DD0B0F1804F30B410D0A2F594327B
:10191C0090420CD04D6923F080032B438C680A68ED
:10192C0003600123C462826230BC436170474A6821
:10193C0023F070031343CA6823F440731343E9E79D
:10194C004A6823F070031343CA6823F440731343AB
:10195C004A6923F08003134303608B68C3620B68EE
:10196C0083620B690363012343617047002C0140C0
:10197C0050B310B590F83D30044603F0FF02F3B1BC
:10198C000223214684F83D3051F8040BFFF7B6FFD3
:10199C00012384F8463084F83E3084F83F3084F8D4
:1019AC00403084F8413084F8423084F8433084F875
:1019BC00443084F8453084F83D30002010BD80F868
:1019CC003C20FFF71DF9DBE70120704790F83C3015
:1019DC00012B22D00222036830B480F83D205A68D3
:1019EC000C680F4D22F070022243AB429C685A6087
:1019FC0005D0B3F1804F02D00A4A934204D14A6811
:101A0C0024F0800414439C600023012280F83C30B5
:101A1C0080F83D2030BC184670470220704700BF4C
:101A2C00002C014000040040704700BF704700BF0D
:101A3C0070B500260C4D0D4C641BA410A64209D1A8
:101A4C0000F022F800260A4D0A4C641BA410A64292
:101A5C0005D170BD55F8043B98470136EEE755F8B3
:101A6C00043B98470136F2E7D01A0008D01A000858
:101A7C00D01A0008D41A000803460244934200D13D
:101A8C00704703F8011BF9E7F8B500BFF8BC08BCB8
:101A9C009E467047F8B500BFF8BC08BC9E46704720
:101AAC000000000000000000010203040607080902
:101ABC0002030405060708090A0B0C0D0E0F101083
:041ACC000000000016
:041AD00031010008D8
:041AD4000D010008F8
:101AD80004000000010000000500000001000000F3
:101AE80001000000010000000024F40001000000D3
:041AF80010000000DA
:0400000508000C7D66
:00000001FF
